{
	"_format": "hh-sol-artifact-1",
	"contractName": "NFT",
	"sourceName": "contracts/NFT.sol",
	"abi": [
		{
			"inputs": [],
			"stateMutability": "nonpayable",
			"type": "constructor"
		},
		{
			"anonymous": false,
			"inputs": [
				{
					"indexed": true,
					"internalType": "address",
					"name": "owner",
					"type": "address"
				},
				{
					"indexed": true,
					"internalType": "address",
					"name": "approved",
					"type": "address"
				},
				{
					"indexed": true,
					"internalType": "uint256",
					"name": "tokenId",
					"type": "uint256"
				}
			],
			"name": "Approval",
			"type": "event"
		},
		{
			"anonymous": false,
			"inputs": [
				{
					"indexed": true,
					"internalType": "address",
					"name": "owner",
					"type": "address"
				},
				{
					"indexed": true,
					"internalType": "address",
					"name": "operator",
					"type": "address"
				},
				{
					"indexed": false,
					"internalType": "bool",
					"name": "approved",
					"type": "bool"
				}
			],
			"name": "ApprovalForAll",
			"type": "event"
		},
		{
			"anonymous": false,
			"inputs": [
				{
					"indexed": true,
					"internalType": "address",
					"name": "previousOwner",
					"type": "address"
				},
				{
					"indexed": true,
					"internalType": "address",
					"name": "newOwner",
					"type": "address"
				}
			],
			"name": "OwnershipTransferred",
			"type": "event"
		},
		{
			"anonymous": false,
			"inputs": [
				{
					"indexed": true,
					"internalType": "address",
					"name": "from",
					"type": "address"
				},
				{
					"indexed": true,
					"internalType": "address",
					"name": "to",
					"type": "address"
				},
				{
					"indexed": true,
					"internalType": "uint256",
					"name": "tokenId",
					"type": "uint256"
				}
			],
			"name": "Transfer",
			"type": "event"
		},
		{
			"inputs": [
				{
					"internalType": "address",
					"name": "to",
					"type": "address"
				},
				{
					"internalType": "uint256",
					"name": "tokenId",
					"type": "uint256"
				}
			],
			"name": "approve",
			"outputs": [],
			"stateMutability": "nonpayable",
			"type": "function"
		},
		{
			"inputs": [
				{
					"internalType": "address",
					"name": "owner",
					"type": "address"
				}
			],
			"name": "balanceOf",
			"outputs": [
				{
					"internalType": "uint256",
					"name": "",
					"type": "uint256"
				}
			],
			"stateMutability": "view",
			"type": "function"
		},
		{
			"inputs": [
				{
					"internalType": "uint256",
					"name": "tokenId",
					"type": "uint256"
				}
			],
			"name": "getApproved",
			"outputs": [
				{
					"internalType": "address",
					"name": "",
					"type": "address"
				}
			],
			"stateMutability": "view",
			"type": "function"
		},
		{
			"inputs": [
				{
					"internalType": "address",
					"name": "_address",
					"type": "address"
				}
			],
			"name": "getUserNFTs",
			"outputs": [
				{
					"internalType": "uint256[]",
					"name": "",
					"type": "uint256[]"
				},
				{
					"internalType": "string[]",
					"name": "",
					"type": "string[]"
				}
			],
			"stateMutability": "view",
			"type": "function"
		},
		{
			"inputs": [
				{
					"internalType": "address",
					"name": "owner",
					"type": "address"
				},
				{
					"internalType": "address",
					"name": "operator",
					"type": "address"
				}
			],
			"name": "isApprovedForAll",
			"outputs": [
				{
					"internalType": "bool",
					"name": "",
					"type": "bool"
				}
			],
			"stateMutability": "view",
			"type": "function"
		},
		{
			"inputs": [],
			"name": "name",
			"outputs": [
				{
					"internalType": "string",
					"name": "",
					"type": "string"
				}
			],
			"stateMutability": "view",
			"type": "function"
		},
		{
			"inputs": [],
			"name": "owner",
			"outputs": [
				{
					"internalType": "address",
					"name": "",
					"type": "address"
				}
			],
			"stateMutability": "view",
			"type": "function"
		},
		{
			"inputs": [
				{
					"internalType": "uint256",
					"name": "tokenId",
					"type": "uint256"
				}
			],
			"name": "ownerOf",
			"outputs": [
				{
					"internalType": "address",
					"name": "",
					"type": "address"
				}
			],
			"stateMutability": "view",
			"type": "function"
		},
		{
			"inputs": [],
			"name": "renounceOwnership",
			"outputs": [],
			"stateMutability": "nonpayable",
			"type": "function"
		},
		{
			"inputs": [
				{
					"internalType": "address",
					"name": "to",
					"type": "address"
				},
				{
					"internalType": "string",
					"name": "uri",
					"type": "string"
				}
			],
			"name": "safeMint",
			"outputs": [],
			"stateMutability": "nonpayable",
			"type": "function"
		},
		{
			"inputs": [
				{
					"internalType": "address",
					"name": "from",
					"type": "address"
				},
				{
					"internalType": "address",
					"name": "to",
					"type": "address"
				},
				{
					"internalType": "uint256",
					"name": "tokenId",
					"type": "uint256"
				}
			],
			"name": "safeTransferFrom",
			"outputs": [],
			"stateMutability": "nonpayable",
			"type": "function"
		},
		{
			"inputs": [
				{
					"internalType": "address",
					"name": "from",
					"type": "address"
				},
				{
					"internalType": "address",
					"name": "to",
					"type": "address"
				},
				{
					"internalType": "uint256",
					"name": "tokenId",
					"type": "uint256"
				},
				{
					"internalType": "bytes",
					"name": "_data",
					"type": "bytes"
				}
			],
			"name": "safeTransferFrom",
			"outputs": [],
			"stateMutability": "nonpayable",
			"type": "function"
		},
		{
			"inputs": [
				{
					"internalType": "address",
					"name": "operator",
					"type": "address"
				},
				{
					"internalType": "bool",
					"name": "approved",
					"type": "bool"
				}
			],
			"name": "setApprovalForAll",
			"outputs": [],
			"stateMutability": "nonpayable",
			"type": "function"
		},
		{
			"inputs": [
				{
					"internalType": "bytes4",
					"name": "interfaceId",
					"type": "bytes4"
				}
			],
			"name": "supportsInterface",
			"outputs": [
				{
					"internalType": "bool",
					"name": "",
					"type": "bool"
				}
			],
			"stateMutability": "view",
			"type": "function"
		},
		{
			"inputs": [],
			"name": "symbol",
			"outputs": [
				{
					"internalType": "string",
					"name": "",
					"type": "string"
				}
			],
			"stateMutability": "view",
			"type": "function"
		},
		{
			"inputs": [
				{
					"internalType": "uint256",
					"name": "index",
					"type": "uint256"
				}
			],
			"name": "tokenByIndex",
			"outputs": [
				{
					"internalType": "uint256",
					"name": "",
					"type": "uint256"
				}
			],
			"stateMutability": "view",
			"type": "function"
		},
		{
			"inputs": [
				{
					"internalType": "address",
					"name": "owner",
					"type": "address"
				},
				{
					"internalType": "uint256",
					"name": "index",
					"type": "uint256"
				}
			],
			"name": "tokenOfOwnerByIndex",
			"outputs": [
				{
					"internalType": "uint256",
					"name": "",
					"type": "uint256"
				}
			],
			"stateMutability": "view",
			"type": "function"
		},
		{
			"inputs": [
				{
					"internalType": "uint256",
					"name": "tokenId",
					"type": "uint256"
				}
			],
			"name": "tokenURI",
			"outputs": [
				{
					"internalType": "string",
					"name": "",
					"type": "string"
				}
			],
			"stateMutability": "view",
			"type": "function"
		},
		{
			"inputs": [],
			"name": "totalSupply",
			"outputs": [
				{
					"internalType": "uint256",
					"name": "",
					"type": "uint256"
				}
			],
			"stateMutability": "view",
			"type": "function"
		},
		{
			"inputs": [
				{
					"internalType": "address",
					"name": "from",
					"type": "address"
				},
				{
					"internalType": "address",
					"name": "to",
					"type": "address"
				},
				{
					"internalType": "uint256",
					"name": "tokenId",
					"type": "uint256"
				}
			],
			"name": "transferFrom",
			"outputs": [],
			"stateMutability": "nonpayable",
			"type": "function"
		},
		{
			"inputs": [
				{
					"internalType": "address",
					"name": "newOwner",
					"type": "address"
				}
			],
			"name": "transferOwnership",
			"outputs": [],
			"stateMutability": "nonpayable",
			"type": "function"
		}
	],
	"bytecode": "0x60806040523480156200001157600080fd5b506040518060400160405280600781526020017f4d79546f6b656e000000000000000000000000000000000000000000000000008152506040518060400160405280600381526020017f4d544b000000000000000000000000000000000000000000000000000000000081525081600090816200008f919062000412565b508060019081620000a1919062000412565b505050620000c4620000b8620000ca60201b60201c565b620000d260201b60201c565b620004f9565b600033905090565b6000600a60009054906101000a900473ffffffffffffffffffffffffffffffffffffffff16905081600a60006101000a81548173ffffffffffffffffffffffffffffffffffffffff021916908373ffffffffffffffffffffffffffffffffffffffff1602179055508173ffffffffffffffffffffffffffffffffffffffff168173ffffffffffffffffffffffffffffffffffffffff167f8be0079c531659141344cd1fd0a4f28419497f9722a3daafe3b4186f6b6457e060405160405180910390a35050565b600081519050919050565b7f4e487b7100000000000000000000000000000000000000000000000000000000600052604160045260246000fd5b7f4e487b7100000000000000000000000000000000000000000000000000000000600052602260045260246000fd5b600060028204905060018216806200021a57607f821691505b60208210810362000230576200022f620001d2565b5b50919050565b60008190508160005260206000209050919050565b60006020601f8301049050919050565b600082821b905092915050565b6000600883026200029a7fffffffffffffffffffffffffffffffffffffffffffffffffffffffffffffffff826200025b565b620002a686836200025b565b95508019841693508086168417925050509392505050565b6000819050919050565b6000819050919050565b6000620002f3620002ed620002e784620002be565b620002c8565b620002be565b9050919050565b6000819050919050565b6200030f83620002d2565b620003276200031e82620002fa565b84845462000268565b825550505050565b600090565b6200033e6200032f565b6200034b81848462000304565b505050565b5b8181101562000373576200036760008262000334565b60018101905062000351565b5050565b601f821115620003c2576200038c8162000236565b62000397846200024b565b81016020851015620003a7578190505b620003bf620003b6856200024b565b83018262000350565b50505b505050565b600082821c905092915050565b6000620003e760001984600802620003c7565b1980831691505092915050565b6000620004028383620003d4565b9150826002028217905092915050565b6200041d8262000198565b67ffffffffffffffff811115620004395762000438620001a3565b5b62000445825462000201565b6200045282828562000377565b600060209050601f8311600181146200048a576000841562000475578287015190505b620004818582620003f4565b865550620004f1565b601f1984166200049a8662000236565b60005b82811015620004c4578489015182556001820191506020850194506020810190506200049d565b86831015620004e45784890151620004e0601f891682620003d4565b8355505b6001600288020188555050505b505050505050565b613d6280620005096000396000f3fe608060405234801561001057600080fd5b50600436106101375760003560e01c80636352211e116100b8578063a22cb4651161007c578063a22cb46514610363578063b88d4fde1461037f578063c87b56dd1461039b578063d204c45e146103cb578063e985e9c5146103e7578063f2fde38b1461041757610137565b80636352211e146102bd57806370a08231146102ed578063715018a61461031d5780638da5cb5b1461032757806395d89b411461034557610137565b806323b872dd116100ff57806323b872dd146101f45780632f745c591461021057806342842e0e146102405780634f6ccce71461025c57806352de4ee51461028c57610137565b806301ffc9a71461013c57806306fdde031461016c578063081812fc1461018a578063095ea7b3146101ba57806318160ddd146101d6575b600080fd5b61015660048036038101906101519190612421565b610433565b6040516101639190612469565b60405180910390f35b6101746104ad565b6040516101819190612514565b60405180910390f35b6101a4600480360381019061019f919061256c565b61053f565b6040516101b191906125da565b60405180910390f35b6101d460048036038101906101cf9190612621565b6105c4565b005b6101de6106db565b6040516101eb9190612670565b60405180910390f35b61020e6004803603810190610209919061268b565b6106e8565b005b61022a60048036038101906102259190612621565b610748565b6040516102379190612670565b60405180910390f35b61025a6004803603810190610255919061268b565b6107ed565b005b6102766004803603810190610271919061256c565b61080d565b6040516102839190612670565b60405180910390f35b6102a660048036038101906102a191906126de565b61087e565b6040516102b49291906128d5565b60405180910390f35b6102d760048036038101906102d2919061256c565b6109c4565b6040516102e491906125da565b60405180910390f35b610307600480360381019061030291906126de565b610a75565b6040516103149190612670565b60405180910390f35b610325610b2c565b005b61032f610bb4565b60405161033c91906125da565b60405180910390f35b61034d610bde565b60405161035a9190612514565b60405180910390f35b61037d60048036038101906103789190612938565b610c70565b005b61039960048036038101906103949190612aad565b610df0565b005b6103b560048036038101906103b0919061256c565b610e52565b6040516103c29190612514565b60405180910390f35b6103e560048036038101906103e09190612bd1565b610fa3565b005b61040160048036038101906103fc9190612c2d565b611053565b60405161040e9190612469565b60405180910390f35b610431600480360381019061042c91906126de565b6110e7565b005b60007f780e9d63000000000000000000000000000000000000000000000000000000007bffffffffffffffffffffffffffffffffffffffffffffffffffffffff1916827bffffffffffffffffffffffffffffffffffffffffffffffffffffffff191614806104a657506104a5826111de565b5b9050919050565b6060600080546104bc90612c9c565b80601f01602080910402602001604051908101604052809291908181526020018280546104e890612c9c565b80156105355780601f1061050a57610100808354040283529160200191610535565b820191906000526020600020905b81548152906001019060200180831161051857829003601f168201915b5050505050905090565b600061054a826112c0565b610589576040517f08c379a000000000000000000000000000000000000000000000000000000000815260040161058090612d3f565b60405180910390fd5b6004600083815260200190815260200160002060009054906101000a900473ffffffffffffffffffffffffffffffffffffffff169050919050565b60006105cf826109c4565b90508073ffffffffffffffffffffffffffffffffffffffff168373ffffffffffffffffffffffffffffffffffffffff160361063f576040517f08c379a000000000000000000000000000000000000000000000000000000000815260040161063690612dd1565b60405180910390fd5b8073ffffffffffffffffffffffffffffffffffffffff1661065e61132c565b73ffffffffffffffffffffffffffffffffffffffff16148061068d575061068c8161068761132c565b611053565b5b6106cc576040517f08c379a00000000000000000000000000000000000000000000000000000000081526004016106c390612e63565b60405180910390fd5b6106d68383611334565b505050565b6000600880549050905090565b6106f96106f361132c565b826113ed565b610738576040517f08c379a000000000000000000000000000000000000000000000000000000000815260040161072f90612ef5565b60405180910390fd5b6107438383836114cb565b505050565b600061075383610a75565b8210610794576040517f08c379a000000000000000000000000000000000000000000000000000000000815260040161078b90612f87565b60405180910390fd5b600660008473ffffffffffffffffffffffffffffffffffffffff1673ffffffffffffffffffffffffffffffffffffffff168152602001908152602001600020600083815260200190815260200160002054905092915050565b61080883838360405180602001604052806000815250610df0565b505050565b60006108176106db565b8210610858576040517f08c379a000000000000000000000000000000000000000000000000000000000815260040161084f90613019565b60405180910390fd5b6008828154811061086c5761086b613039565b5b90600052602060002001549050919050565b606080600061088c84610a75565b905060008167ffffffffffffffff8111156108aa576108a9612982565b5b6040519080825280602002602001820160405280156108d85781602001602082028036833780820191505090505b50905060008267ffffffffffffffff8111156108f7576108f6612982565b5b60405190808252806020026020018201604052801561092a57816020015b60608152602001906001900390816109155790505b50905060005b838110156109b5576109428782610748565b83828151811061095557610954613039565b5b60200260200101818152505061098483828151811061097757610976613039565b5b6020026020010151610e52565b82828151811061099757610996613039565b5b602002602001018190525080806109ad90613097565b915050610930565b50818194509450505050915091565b6000806002600084815260200190815260200160002060009054906101000a900473ffffffffffffffffffffffffffffffffffffffff169050600073ffffffffffffffffffffffffffffffffffffffff168173ffffffffffffffffffffffffffffffffffffffff1603610a6c576040517f08c379a0000000000000000000000000000000000000000000000000000000008152600401610a6390613151565b60405180910390fd5b80915050919050565b60008073ffffffffffffffffffffffffffffffffffffffff168273ffffffffffffffffffffffffffffffffffffffff1603610ae5576040517f08c379a0000000000000000000000000000000000000000000000000000000008152600401610adc906131e3565b60405180910390fd5b600360008373ffffffffffffffffffffffffffffffffffffffff1673ffffffffffffffffffffffffffffffffffffffff168152602001908152602001600020549050919050565b610b3461132c565b73ffffffffffffffffffffffffffffffffffffffff16610b52610bb4565b73ffffffffffffffffffffffffffffffffffffffff1614610ba8576040517f08c379a0000000000000000000000000000000000000000000000000000000008152600401610b9f9061324f565b60405180910390fd5b610bb26000611726565b565b6000600a60009054906101000a900473ffffffffffffffffffffffffffffffffffffffff16905090565b606060018054610bed90612c9c565b80601f0160208091040260200160405190810160405280929190818152602001828054610c1990612c9c565b8015610c665780601f10610c3b57610100808354040283529160200191610c66565b820191906000526020600020905b815481529060010190602001808311610c4957829003601f168201915b5050505050905090565b610c7861132c565b73ffffffffffffffffffffffffffffffffffffffff168273ffffffffffffffffffffffffffffffffffffffff1603610ce5576040517f08c379a0000000000000000000000000000000000000000000000000000000008152600401610cdc906132bb565b60405180910390fd5b8060056000610cf261132c565b73ffffffffffffffffffffffffffffffffffffffff1673ffffffffffffffffffffffffffffffffffffffff16815260200190815260200160002060008473ffffffffffffffffffffffffffffffffffffffff1673ffffffffffffffffffffffffffffffffffffffff16815260200190815260200160002060006101000a81548160ff0219169083151502179055508173ffffffffffffffffffffffffffffffffffffffff16610d9f61132c565b73ffffffffffffffffffffffffffffffffffffffff167f17307eab39ab6107e8899845ad3d59bd9653f200f220920489ca2b5937696c3183604051610de49190612469565b60405180910390a35050565b610e01610dfb61132c565b836113ed565b610e40576040517f08c379a0000000000000000000000000000000000000000000000000000000008152600401610e3790612ef5565b60405180910390fd5b610e4c848484846117ec565b50505050565b6060610e5d826112c0565b610e9c576040517f08c379a0000000000000000000000000000000000000000000000000000000008152600401610e939061334d565b60405180910390fd5b6000600d60008481526020019081526020016000208054610ebc90612c9c565b80601f0160208091040260200160405190810160405280929190818152602001828054610ee890612c9c565b8015610f355780601f10610f0a57610100808354040283529160200191610f35565b820191906000526020600020905b815481529060010190602001808311610f1857829003601f168201915b505050505090506000610f46611848565b90506000815103610f5b578192505050610f9e565b600082511115610f90578082604051602001610f789291906133a9565b60405160208183030381529060405292505050610f9e565b610f99846118da565b925050505b919050565b610fab61132c565b73ffffffffffffffffffffffffffffffffffffffff16610fc9610bb4565b73ffffffffffffffffffffffffffffffffffffffff161461101f576040517f08c379a00000000000000000000000000000000000000000000000000000000081526004016110169061324f565b60405180910390fd5b6000600b600081548092919061103490613097565b9190505590506110448382611981565b61104e818361199f565b505050565b6000600560008473ffffffffffffffffffffffffffffffffffffffff1673ffffffffffffffffffffffffffffffffffffffff16815260200190815260200160002060008373ffffffffffffffffffffffffffffffffffffffff1673ffffffffffffffffffffffffffffffffffffffff16815260200190815260200160002060009054906101000a900460ff16905092915050565b6110ef61132c565b73ffffffffffffffffffffffffffffffffffffffff1661110d610bb4565b73ffffffffffffffffffffffffffffffffffffffff1614611163576040517f08c379a000000000000000000000000000000000000000000000000000000000815260040161115a9061324f565b60405180910390fd5b600073ffffffffffffffffffffffffffffffffffffffff168173ffffffffffffffffffffffffffffffffffffffff16036111d2576040517f08c379a00000000000000000000000000000000000000000000000000000000081526004016111c99061343f565b60405180910390fd5b6111db81611726565b50565b60007f80ac58cd000000000000000000000000000000000000000000000000000000007bffffffffffffffffffffffffffffffffffffffffffffffffffffffff1916827bffffffffffffffffffffffffffffffffffffffffffffffffffffffff191614806112a957507f5b5e139f000000000000000000000000000000000000000000000000000000007bffffffffffffffffffffffffffffffffffffffffffffffffffffffff1916827bffffffffffffffffffffffffffffffffffffffffffffffffffffffff1916145b806112b957506112b882611a0c565b5b9050919050565b60008073ffffffffffffffffffffffffffffffffffffffff166002600084815260200190815260200160002060009054906101000a900473ffffffffffffffffffffffffffffffffffffffff1673ffffffffffffffffffffffffffffffffffffffff1614159050919050565b600033905090565b816004600083815260200190815260200160002060006101000a81548173ffffffffffffffffffffffffffffffffffffffff021916908373ffffffffffffffffffffffffffffffffffffffff160217905550808273ffffffffffffffffffffffffffffffffffffffff166113a7836109c4565b73ffffffffffffffffffffffffffffffffffffffff167f8c5be1e5ebec7d5bd14f71427d1e84f3dd0314c0f7b2291e5b200ac8c7c3b92560405160405180910390a45050565b60006113f8826112c0565b611437576040517f08c379a000000000000000000000000000000000000000000000000000000000815260040161142e906134d1565b60405180910390fd5b6000611442836109c4565b90508073ffffffffffffffffffffffffffffffffffffffff168473ffffffffffffffffffffffffffffffffffffffff1614806114b157508373ffffffffffffffffffffffffffffffffffffffff166114998461053f565b73ffffffffffffffffffffffffffffffffffffffff16145b806114c257506114c18185611053565b5b91505092915050565b8273ffffffffffffffffffffffffffffffffffffffff166114eb826109c4565b73ffffffffffffffffffffffffffffffffffffffff1614611541576040517f08c379a000000000000000000000000000000000000000000000000000000000815260040161153890613563565b60405180910390fd5b600073ffffffffffffffffffffffffffffffffffffffff168273ffffffffffffffffffffffffffffffffffffffff16036115b0576040517f08c379a00000000000000000000000000000000000000000000000000000000081526004016115a7906135f5565b60405180910390fd5b6115bb838383611a76565b6115c6600082611334565b6001600360008573ffffffffffffffffffffffffffffffffffffffff1673ffffffffffffffffffffffffffffffffffffffff16815260200190815260200160002060008282546116169190613615565b925050819055506001600360008473ffffffffffffffffffffffffffffffffffffffff1673ffffffffffffffffffffffffffffffffffffffff168152602001908152602001600020600082825461166d9190613649565b92505081905550816002600083815260200190815260200160002060006101000a81548173ffffffffffffffffffffffffffffffffffffffff021916908373ffffffffffffffffffffffffffffffffffffffff160217905550808273ffffffffffffffffffffffffffffffffffffffff168473ffffffffffffffffffffffffffffffffffffffff167fddf252ad1be2c89b69c2b068fc378daa952ba7f163c4a11628f55a4df523b3ef60405160405180910390a4505050565b6000600a60009054906101000a900473ffffffffffffffffffffffffffffffffffffffff16905081600a60006101000a81548173ffffffffffffffffffffffffffffffffffffffff021916908373ffffffffffffffffffffffffffffffffffffffff1602179055508173ffffffffffffffffffffffffffffffffffffffff168173ffffffffffffffffffffffffffffffffffffffff167f8be0079c531659141344cd1fd0a4f28419497f9722a3daafe3b4186f6b6457e060405160405180910390a35050565b6117f78484846114cb565b61180384848484611b88565b611842576040517f08c379a0000000000000000000000000000000000000000000000000000000008152600401611839906136ef565b60405180910390fd5b50505050565b6060600c805461185790612c9c565b80601f016020809104026020016040519081016040528092919081815260200182805461188390612c9c565b80156118d05780601f106118a5576101008083540402835291602001916118d0565b820191906000526020600020905b8154815290600101906020018083116118b357829003601f168201915b5050505050905090565b60606118e5826112c0565b611924576040517f08c379a000000000000000000000000000000000000000000000000000000000815260040161191b90613781565b60405180910390fd5b600061192e611848565b9050600081511161194e5760405180602001604052806000815250611979565b8061195884611d0f565b6040516020016119699291906133a9565b6040516020818303038152906040525b915050919050565b61199b828260405180602001604052806000815250611e6f565b5050565b6119a8826112c0565b6119e7576040517f08c379a00000000000000000000000000000000000000000000000000000000081526004016119de90613813565b60405180910390fd5b80600d60008481526020019081526020016000209081611a0791906139df565b505050565b60007f01ffc9a7000000000000000000000000000000000000000000000000000000007bffffffffffffffffffffffffffffffffffffffffffffffffffffffff1916827bffffffffffffffffffffffffffffffffffffffffffffffffffffffff1916149050919050565b611a81838383611eca565b600073ffffffffffffffffffffffffffffffffffffffff168373ffffffffffffffffffffffffffffffffffffffff1603611ac357611abe81611ecf565b611b02565b8173ffffffffffffffffffffffffffffffffffffffff168373ffffffffffffffffffffffffffffffffffffffff1614611b0157611b008382611f18565b5b5b600073ffffffffffffffffffffffffffffffffffffffff168273ffffffffffffffffffffffffffffffffffffffff1603611b4457611b3f81612085565b611b83565b8273ffffffffffffffffffffffffffffffffffffffff168273ffffffffffffffffffffffffffffffffffffffff1614611b8257611b818282612156565b5b5b505050565b6000611ba98473ffffffffffffffffffffffffffffffffffffffff166121d5565b15611d02578373ffffffffffffffffffffffffffffffffffffffff1663150b7a02611bd261132c565b8786866040518563ffffffff1660e01b8152600401611bf49493929190613b06565b6020604051808303816000875af1925050508015611c3057506040513d601f19601f82011682018060405250810190611c2d9190613b67565b60015b611cb2573d8060008114611c60576040519150601f19603f3d011682016040523d82523d6000602084013e611c65565b606091505b506000815103611caa576040517f08c379a0000000000000000000000000000000000000000000000000000000008152600401611ca1906136ef565b60405180910390fd5b805181602001fd5b63150b7a0260e01b7bffffffffffffffffffffffffffffffffffffffffffffffffffffffff1916817bffffffffffffffffffffffffffffffffffffffffffffffffffffffff191614915050611d07565b600190505b949350505050565b606060008203611d56576040518060400160405280600181526020017f30000000000000000000000000000000000000000000000000000000000000008152509050611e6a565b600082905060005b60008214611d88578080611d7190613097565b915050600a82611d819190613bc3565b9150611d5e565b60008167ffffffffffffffff811115611da457611da3612982565b5b6040519080825280601f01601f191660200182016040528015611dd65781602001600182028036833780820191505090505b5090505b60008514611e6357600182611def9190613615565b9150600a85611dfe9190613bf4565b6030611e0a9190613649565b60f81b818381518110611e2057611e1f613039565b5b60200101907effffffffffffffffffffffffffffffffffffffffffffffffffffffffffffff1916908160001a905350600a85611e5c9190613bc3565b9450611dda565b8093505050505b919050565b611e7983836121e8565b611e866000848484611b88565b611ec5576040517f08c379a0000000000000000000000000000000000000000000000000000000008152600401611ebc906136ef565b60405180910390fd5b505050565b505050565b6008805490506009600083815260200190815260200160002081905550600881908060018154018082558091505060019003906000526020600020016000909190919091505550565b60006001611f2584610a75565b611f2f9190613615565b9050600060076000848152602001908152602001600020549050818114612014576000600660008673ffffffffffffffffffffffffffffffffffffffff1673ffffffffffffffffffffffffffffffffffffffff168152602001908152602001600020600084815260200190815260200160002054905080600660008773ffffffffffffffffffffffffffffffffffffffff1673ffffffffffffffffffffffffffffffffffffffff168152602001908152602001600020600084815260200190815260200160002081905550816007600083815260200190815260200160002081905550505b6007600084815260200190815260200160002060009055600660008573ffffffffffffffffffffffffffffffffffffffff1673ffffffffffffffffffffffffffffffffffffffff16815260200190815260200160002060008381526020019081526020016000206000905550505050565b600060016008805490506120999190613615565b90506000600960008481526020019081526020016000205490506000600883815481106120c9576120c8613039565b5b9060005260206000200154905080600883815481106120eb576120ea613039565b5b90600052602060002001819055508160096000838152602001908152602001600020819055506009600085815260200190815260200160002060009055600880548061213a57612139613c25565b5b6001900381819060005260206000200160009055905550505050565b600061216183610a75565b905081600660008573ffffffffffffffffffffffffffffffffffffffff1673ffffffffffffffffffffffffffffffffffffffff168152602001908152602001600020600083815260200190815260200160002081905550806007600084815260200190815260200160002081905550505050565b600080823b905060008111915050919050565b600073ffffffffffffffffffffffffffffffffffffffff168273ffffffffffffffffffffffffffffffffffffffff1603612257576040517f08c379a000000000000000000000000000000000000000000000000000000000815260040161224e90613ca0565b60405180910390fd5b612260816112c0565b156122a0576040517f08c379a000000000000000000000000000000000000000000000000000000000815260040161229790613d0c565b60405180910390fd5b6122ac60008383611a76565b6001600360008473ffffffffffffffffffffffffffffffffffffffff1673ffffffffffffffffffffffffffffffffffffffff16815260200190815260200160002060008282546122fc9190613649565b92505081905550816002600083815260200190815260200160002060006101000a81548173ffffffffffffffffffffffffffffffffffffffff021916908373ffffffffffffffffffffffffffffffffffffffff160217905550808273ffffffffffffffffffffffffffffffffffffffff16600073ffffffffffffffffffffffffffffffffffffffff167fddf252ad1be2c89b69c2b068fc378daa952ba7f163c4a11628f55a4df523b3ef60405160405180910390a45050565b6000604051905090565b600080fd5b600080fd5b60007fffffffff0000000000000000000000000000000000000000000000000000000082169050919050565b6123fe816123c9565b811461240957600080fd5b50565b60008135905061241b816123f5565b92915050565b600060208284031215612437576124366123bf565b5b60006124458482850161240c565b91505092915050565b60008115159050919050565b6124638161244e565b82525050565b600060208201905061247e600083018461245a565b92915050565b600081519050919050565b600082825260208201905092915050565b60005b838110156124be5780820151818401526020810190506124a3565b60008484015250505050565b6000601f19601f8301169050919050565b60006124e682612484565b6124f0818561248f565b93506125008185602086016124a0565b612509816124ca565b840191505092915050565b6000602082019050818103600083015261252e81846124db565b905092915050565b6000819050919050565b61254981612536565b811461255457600080fd5b50565b60008135905061256681612540565b92915050565b600060208284031215612582576125816123bf565b5b600061259084828501612557565b91505092915050565b600073ffffffffffffffffffffffffffffffffffffffff82169050919050565b60006125c482612599565b9050919050565b6125d4816125b9565b82525050565b60006020820190506125ef60008301846125cb565b92915050565b6125fe816125b9565b811461260957600080fd5b50565b60008135905061261b816125f5565b92915050565b60008060408385031215612638576126376123bf565b5b60006126468582860161260c565b925050602061265785828601612557565b9150509250929050565b61266a81612536565b82525050565b60006020820190506126856000830184612661565b92915050565b6000806000606084860312156126a4576126a36123bf565b5b60006126b28682870161260c565b93505060206126c38682870161260c565b92505060406126d486828701612557565b9150509250925092565b6000602082840312156126f4576126f36123bf565b5b60006127028482850161260c565b91505092915050565b600081519050919050565b600082825260208201905092915050565b6000819050602082019050919050565b61274081612536565b82525050565b60006127528383612737565b60208301905092915050565b6000602082019050919050565b60006127768261270b565b6127808185612716565b935061278b83612727565b8060005b838110156127bc5781516127a38882612746565b97506127ae8361275e565b92505060018101905061278f565b5085935050505092915050565b600081519050919050565b600082825260208201905092915050565b6000819050602082019050919050565b600082825260208201905092915050565b600061281182612484565b61281b81856127f5565b935061282b8185602086016124a0565b612834816124ca565b840191505092915050565b600061284b8383612806565b905092915050565b6000602082019050919050565b600061286b826127c9565b61287581856127d4565b935083602082028501612887856127e5565b8060005b858110156128c357848403895281516128a4858261283f565b94506128af83612853565b925060208a0199505060018101905061288b565b50829750879550505050505092915050565b600060408201905081810360008301526128ef818561276b565b905081810360208301526129038184612860565b90509392505050565b6129158161244e565b811461292057600080fd5b50565b6000813590506129328161290c565b92915050565b6000806040838503121561294f5761294e6123bf565b5b600061295d8582860161260c565b925050602061296e85828601612923565b9150509250929050565b600080fd5b600080fd5b7f4e487b7100000000000000000000000000000000000000000000000000000000600052604160045260246000fd5b6129ba826124ca565b810181811067ffffffffffffffff821117156129d9576129d8612982565b5b80604052505050565b60006129ec6123b5565b90506129f882826129b1565b919050565b600067ffffffffffffffff821115612a1857612a17612982565b5b612a21826124ca565b9050602081019050919050565b82818337600083830152505050565b6000612a50612a4b846129fd565b6129e2565b905082815260208101848484011115612a6c57612a6b61297d565b5b612a77848285612a2e565b509392505050565b600082601f830112612a9457612a93612978565b5b8135612aa4848260208601612a3d565b91505092915050565b60008060008060808587031215612ac757612ac66123bf565b5b6000612ad58782880161260c565b9450506020612ae68782880161260c565b9350506040612af787828801612557565b925050606085013567ffffffffffffffff811115612b1857612b176123c4565b5b612b2487828801612a7f565b91505092959194509250565b600067ffffffffffffffff821115612b4b57612b4a612982565b5b612b54826124ca565b9050602081019050919050565b6000612b74612b6f84612b30565b6129e2565b905082815260208101848484011115612b9057612b8f61297d565b5b612b9b848285612a2e565b509392505050565b600082601f830112612bb857612bb7612978565b5b8135612bc8848260208601612b61565b91505092915050565b60008060408385031215612be857612be76123bf565b5b6000612bf68582860161260c565b925050602083013567ffffffffffffffff811115612c1757612c166123c4565b5b612c2385828601612ba3565b9150509250929050565b60008060408385031215612c4457612c436123bf565b5b6000612c528582860161260c565b9250506020612c638582860161260c565b9150509250929050565b7f4e487b7100000000000000000000000000000000000000000000000000000000600052602260045260246000fd5b60006002820490506001821680612cb457607f821691505b602082108103612cc757612cc6612c6d565b5b50919050565b7f4552433732313a20617070726f76656420717565727920666f72206e6f6e657860008201527f697374656e7420746f6b656e0000000000000000000000000000000000000000602082015250565b6000612d29602c8361248f565b9150612d3482612ccd565b604082019050919050565b60006020820190508181036000830152612d5881612d1c565b9050919050565b7f4552433732313a20617070726f76616c20746f2063757272656e74206f776e6560008201527f7200000000000000000000000000000000000000000000000000000000000000602082015250565b6000612dbb60218361248f565b9150612dc682612d5f565b604082019050919050565b60006020820190508181036000830152612dea81612dae565b9050919050565b7f4552433732313a20617070726f76652063616c6c6572206973206e6f74206f7760008201527f6e6572206e6f7220617070726f76656420666f7220616c6c0000000000000000602082015250565b6000612e4d60388361248f565b9150612e5882612df1565b604082019050919050565b60006020820190508181036000830152612e7c81612e40565b9050919050565b7f4552433732313a207472616e736665722063616c6c6572206973206e6f74206f60008201527f776e6572206e6f7220617070726f766564000000000000000000000000000000602082015250565b6000612edf60318361248f565b9150612eea82612e83565b604082019050919050565b60006020820190508181036000830152612f0e81612ed2565b9050919050565b7f455243373231456e756d657261626c653a206f776e657220696e646578206f7560008201527f74206f6620626f756e6473000000000000000000000000000000000000000000602082015250565b6000612f71602b8361248f565b9150612f7c82612f15565b604082019050919050565b60006020820190508181036000830152612fa081612f64565b9050919050565b7f455243373231456e756d657261626c653a20676c6f62616c20696e646578206f60008201527f7574206f6620626f756e64730000000000000000000000000000000000000000602082015250565b6000613003602c8361248f565b915061300e82612fa7565b604082019050919050565b6000602082019050818103600083015261303281612ff6565b9050919050565b7f4e487b7100000000000000000000000000000000000000000000000000000000600052603260045260246000fd5b7f4e487b7100000000000000000000000000000000000000000000000000000000600052601160045260246000fd5b60006130a282612536565b91507fffffffffffffffffffffffffffffffffffffffffffffffffffffffffffffffff82036130d4576130d3613068565b5b600182019050919050565b7f4552433732313a206f776e657220717565727920666f72206e6f6e657869737460008201527f656e7420746f6b656e0000000000000000000000000000000000000000000000602082015250565b600061313b60298361248f565b9150613146826130df565b604082019050919050565b6000602082019050818103600083015261316a8161312e565b9050919050565b7f4552433732313a2062616c616e636520717565727920666f7220746865207a6560008201527f726f206164647265737300000000000000000000000000000000000000000000602082015250565b60006131cd602a8361248f565b91506131d882613171565b604082019050919050565b600060208201905081810360008301526131fc816131c0565b9050919050565b7f4f776e61626c653a2063616c6c6572206973206e6f7420746865206f776e6572600082015250565b600061323960208361248f565b915061324482613203565b602082019050919050565b600060208201905081810360008301526132688161322c565b9050919050565b7f4552433732313a20617070726f766520746f2063616c6c657200000000000000600082015250565b60006132a560198361248f565b91506132b08261326f565b602082019050919050565b600060208201905081810360008301526132d481613298565b9050919050565b7f45524337323155524953746f726167653a2055524920717565727920666f722060008201527f6e6f6e6578697374656e7420746f6b656e000000000000000000000000000000602082015250565b600061333760318361248f565b9150613342826132db565b604082019050919050565b600060208201905081810360008301526133668161332a565b9050919050565b600081905092915050565b600061338382612484565b61338d818561336d565b935061339d8185602086016124a0565b80840191505092915050565b60006133b58285613378565b91506133c18284613378565b91508190509392505050565b7f4f776e61626c653a206e6577206f776e657220697320746865207a65726f206160008201527f6464726573730000000000000000000000000000000000000000000000000000602082015250565b600061342960268361248f565b9150613434826133cd565b604082019050919050565b600060208201905081810360008301526134588161341c565b9050919050565b7f4552433732313a206f70657261746f7220717565727920666f72206e6f6e657860008201527f697374656e7420746f6b656e0000000000000000000000000000000000000000602082015250565b60006134bb602c8361248f565b91506134c68261345f565b604082019050919050565b600060208201905081810360008301526134ea816134ae565b9050919050565b7f4552433732313a207472616e73666572206f6620746f6b656e2074686174206960008201527f73206e6f74206f776e0000000000000000000000000000000000000000000000602082015250565b600061354d60298361248f565b9150613558826134f1565b604082019050919050565b6000602082019050818103600083015261357c81613540565b9050919050565b7f4552433732313a207472616e7366657220746f20746865207a65726f2061646460008201527f7265737300000000000000000000000000000000000000000000000000000000602082015250565b60006135df60248361248f565b91506135ea82613583565b604082019050919050565b6000602082019050818103600083015261360e816135d2565b9050919050565b600061362082612536565b915061362b83612536565b925082820390508181111561364357613642613068565b5b92915050565b600061365482612536565b915061365f83612536565b925082820190508082111561367757613676613068565b5b92915050565b7f4552433732313a207472616e7366657220746f206e6f6e20455243373231526560008201527f63656976657220696d706c656d656e7465720000000000000000000000000000602082015250565b60006136d960328361248f565b91506136e48261367d565b604082019050919050565b60006020820190508181036000830152613708816136cc565b9050919050565b7f4552433732314d657461646174613a2055524920717565727920666f72206e6f60008201527f6e6578697374656e7420746f6b656e0000000000000000000000000000000000602082015250565b600061376b602f8361248f565b91506137768261370f565b604082019050919050565b6000602082019050818103600083015261379a8161375e565b9050919050565b7f45524337323155524953746f726167653a2055524920736574206f66206e6f6e60008201527f6578697374656e7420746f6b656e000000000000000000000000000000000000602082015250565b60006137fd602e8361248f565b9150613808826137a1565b604082019050919050565b6000602082019050818103600083015261382c816137f0565b9050919050565b60008190508160005260206000209050919050565b60006020601f8301049050919050565b600082821b905092915050565b6000600883026138957fffffffffffffffffffffffffffffffffffffffffffffffffffffffffffffffff82613858565b61389f8683613858565b95508019841693508086168417925050509392505050565b6000819050919050565b60006138dc6138d76138d284612536565b6138b7565b612536565b9050919050565b6000819050919050565b6138f6836138c1565b61390a613902826138e3565b848454613865565b825550505050565b600090565b61391f613912565b61392a8184846138ed565b505050565b5b8181101561394e57613943600082613917565b600181019050613930565b5050565b601f8211156139935761396481613833565b61396d84613848565b8101602085101561397c578190505b61399061398885613848565b83018261392f565b50505b505050565b600082821c905092915050565b60006139b660001984600802613998565b1980831691505092915050565b60006139cf83836139a5565b9150826002028217905092915050565b6139e882612484565b67ffffffffffffffff811115613a0157613a00612982565b5b613a0b8254612c9c565b613a16828285613952565b600060209050601f831160018114613a495760008415613a37578287015190505b613a4185826139c3565b865550613aa9565b601f198416613a5786613833565b60005b82811015613a7f57848901518255600182019150602085019450602081019050613a5a565b86831015613a9c5784890151613a98601f8916826139a5565b8355505b6001600288020188555050505b505050505050565b600081519050919050565b600082825260208201905092915050565b6000613ad882613ab1565b613ae28185613abc565b9350613af28185602086016124a0565b613afb816124ca565b840191505092915050565b6000608082019050613b1b60008301876125cb565b613b2860208301866125cb565b613b356040830185612661565b8181036060830152613b478184613acd565b905095945050505050565b600081519050613b61816123f5565b92915050565b600060208284031215613b7d57613b7c6123bf565b5b6000613b8b84828501613b52565b91505092915050565b7f4e487b7100000000000000000000000000000000000000000000000000000000600052601260045260246000fd5b6000613bce82612536565b9150613bd983612536565b925082613be957613be8613b94565b5b828204905092915050565b6000613bff82612536565b9150613c0a83612536565b925082613c1a57613c19613b94565b5b828206905092915050565b7f4e487b7100000000000000000000000000000000000000000000000000000000600052603160045260246000fd5b7f4552433732313a206d696e7420746f20746865207a65726f2061646472657373600082015250565b6000613c8a60208361248f565b9150613c9582613c54565b602082019050919050565b60006020820190508181036000830152613cb981613c7d565b9050919050565b7f4552433732313a20746f6b656e20616c7265616479206d696e74656400000000600082015250565b6000613cf6601c8361248f565b9150613d0182613cc0565b602082019050919050565b60006020820190508181036000830152613d2581613ce9565b905091905056fea2646970667358221220d4bdc800efc62a839579735cae4087e1bb83de6ad5118cddab924c713b6d7fed64736f6c63430008120033",
	"linkReferences": {},
	"deployedLinkReferences": {}
}